:100000000C9462000C948A000C948A000C948A0070
:100010000C948A000C948A000C948A000C948A0038
:100020000C948A000C948A000C948A000C948A0028
:100030000C948A000C948A000C948A000C948A0018
:100040000C9494030C948A000C9404040C94DE0326
:100050000C948A000C948A000C948A000C948A00F8
:100060000C948A000C948A000000000024002700F1
:100070002A0000000000250028002B0000000008D6
:10008000000201000003040700000000000000005F
:1000900000000000230026002900040404040404D6
:1000A0000404020202020202030303030303010227
:1000B00004081020408001020408102001020408F6
:1000C00010207B0411241FBECFEFD8E0DEBFCDBFD0
:1000D00012E0A0E0B1E0ECEDF3E102C005900D927A
:1000E000A230B107D9F722E0A2E0B2E001C01D9230
:1000F000AD3BB207E1F710E0C2E6D0E004C02197C3
:10010000FE010E94F407C136D107C9F70E94B4046A
:100110000C94EC090C94000090E0FC01E458FF4FB3
:100120002491FC01E255FF4F3491FC01E656FF4F4C
:10013000E491EE23C9F0222339F0233001F1A8F431
:10014000213019F1223029F1F0E0EE0FFF1FEE58B7
:10015000FF4FA591B4918FB7F894EC91611126C02F
:1001600030953E233C938FBF08952730A9F0283067
:10017000C9F0243049F7809180008F7D03C08091C1
:1001800080008F7780938000DFCF84B58F7784BD28
:10019000DBCF84B58F7DFBCF8091B0008F778093CC
:1001A000B000D2CF8091B0008F7DF9CF3E2BDACF57
:1001B000CF93DF9390E0FC01E255FF4F24918656E8
:1001C0009F4FFC0184918823D1F090E0880F991F04
:1001D000FC01E859FF4FA591B491FC01EE58FF4F87
:1001E000C591D49161110EC09FB7F8948C91E22F04
:1001F000E0958E238C932881E223E8839FBFDF91D3
:10020000CF9108958FB7F894EC91E22BEC938FBFC8
:10021000F6CF3FB7F8948091070290910802A09121
:100220000902B0910A0226B5A89B05C02F3F19F01C
:100230000196A11DB11D3FBFBA2FA92F982F882766
:10024000BC01CD01620F711D811D911D42E0660F41
:10025000771F881F991F4A95D1F708958F929F9213
:10026000AF92BF92CF92DF92EF92FF924B015C016F
:100270000E9409016B017C010E9409016C197D0932
:100280008E099F09683E734081059105A8F321E01E
:10029000821A9108A108B10888EEC80E83E0D81E22
:1002A000E11CF11C81149104A104B10429F7FF9011
:1002B000EF90DF90CF90BF90AF909F908F90089578
:1002C000AF92BF92CF92DF92EF92FF920F931F9364
:1002D000CF93DF936C017B018B01040F151FEB01A2
:1002E0005E01AE18BF08C017D10759F06991D60159
:1002F000ED91FC910190F081E02DC6010995892BCB
:1003000079F7C501DF91CF911F910F91FF90EF9089
:10031000DF90CF90BF90AF900895FC01538D448D36
:10032000252F30E0842F90E0821B930B541710F0A0
:10033000CF96089501970895FC01918D828D9817AD
:1003400061F0A28DAE0FBF2FB11D5D968C91928D85
:100350009F5F9F73928F90E008958FEF9FEF0895B6
:10036000FC01918D828D981731F0828DE80FF11D7F
:10037000858D90E008958FEF9FEF0895FC01918D9A
:10038000228D892F90E0805C9F4F821B91098F7393
:10039000992708958BE092E00E94BE0121E0892B0D
:1003A00009F420E0822F089580E090E0892B29F065
:1003B0000E94CA0181110C9400000895FC01A48DD3
:1003C000A80FB92FB11DA35ABF4F2C91848D90E077
:1003D00001968F739927848FA689B7892C93A0895A
:1003E000B1898C91837080648C93938D848D9813E4
:1003F00006C00288F389E02D80818F7D8083089577
:10040000EF92FF920F931F93CF93DF93EC0181E064
:10041000888F9B8D8C8D98131AC0E889F98980810B
:1004200085FF15C09FB7F894EE89FF896083E8893E
:10043000F98980818370806480839FBF81E090E030
:10044000DF91CF911F910F91FF90EF900895F62EBD
:100450000B8D10E00F5F1F4F0F731127E02E8C8D57
:100460008E110CC00FB607FCFACFE889F98980819C
:1004700085FFF5CFCE010E94DE01F1CFEB8DEC0FB1
:10048000FD2FF11DE35AFF4FF0829FB7F8940B8FB9
:10049000EA89FB8980818062CFCFCF93DF93EC0123
:1004A000888D8823B9F0AA89BB89E889F9898C915C
:1004B00085FD03C0808186FD0DC00FB607FCF7CF18
:1004C0008C9185FFF2CF808185FFEDCFCE010E9418
:1004D000DE01E9CFDF91CF9108950F931F93CF9362
:1004E000C62F682F8091AA020E948C006C2F8091E9
:1004F000AB020E948C008091AC0290E0FC01E255BE
:10050000FF4F6491FC01E656FF4FE491F0E0EE0FDF
:10051000FF1FE057FF4F8591949100E412E42FE014
:1005200030E040E00E9436046115710581059105B7
:1005300029F06F5F7F4F8F4F9F4F9F70CB01CF91FF
:100540001F910F910895FC0101900020E9F7319768
:10055000AF01481B590BBC018BE092E00C94600189
:100560000C94A302CF93DF930E94A302EC0188E1D5
:1005700091E00E94A3028C0F9D1FDF91CF910895FF
:100580008F929F92AF92BF92CF92DF92EF92FF92A3
:100590000F931F93CF93DF93CDB7DEB7A1970FB61D
:1005A000F894DEBF0FBECDBF6C01990FEE08FF08B7
:1005B000F7FE41C06DE28BE092E00E9400028C01E8
:1005C00022273327A9012C193D094E095F0919A2D9
:1005D000CE0181967C019AE0892E912CA12CB12C20
:1005E000CA01B901A50194010E94C307605DF7012A
:1005F00062937F01211531054105510589F790E08E
:1006000080E0309719F0CF010E94A302800F911F64
:10061000A1960FB6F894DEBF0FBECDBFDF91CF918C
:100620001F910F91FF90EF90DF90CF90BF90AF9010
:100630009F908F900895A701960119A28E010F5DDA
:100640001F4F8AE0C82ED12CE12CF12CCA01B90130
:10065000A70196010E94C307605DF80162938F01B4
:10066000211531054105510589F790E080E030976B
:1006700079F2CF010E94A302CBCFCF93DF930E94E8
:10068000C002EC0188E191E00E94A3028C0F9D1F43
:10069000DF91CF910895EF92FF920F931F93CF9325
:1006A000DF93EC017B01198218821B821A821D8262
:1006B0001C82FB0101900020E9F731978F01061B96
:1006C000170BB8016F5F7F4F90E080E00E941F0919
:1006D0000097B9F0998388831B830A832C813D811D
:1006E000232B11F4FC0110821D830C83B701888138
:1006F0009981DF91CF911F910F91FF90EF900C9412
:10070000E50988819981009711F00E949608198265
:1007100018821D821C821B821A82DF91CF911F9149
:100720000F91FF90EF9008951F920F920FB60F92C6
:1007300011242F933F938F939F93AF93BF938091F7
:10074000030290910402A0910502B091060230913B
:10075000020223E0230F2D3758F50196A11DB11D8C
:10076000209302028093030290930402A093050257
:10077000B09306028091070290910802A0910902AD
:10078000B0910A020196A11DB11D809307029093BA
:100790000802A0930902B0930A02BF91AF919F9102
:1007A0008F913F912F910F900FBE0F901F90189532
:1007B00026E8230F0296A11DB11DD2CF1F920F92E2
:1007C0000FB60F9211242F933F934F935F936F9324
:1007D0007F938F939F93AF93BF93EF93FF938BE0A0
:1007E00092E00E94DE01FF91EF91BF91AF919F9146
:1007F0008F917F916F915F914F913F912F910F90CA
:100800000FBE0F901F9018951F920F920FB60F9268
:1008100011242F938F939F93EF93FF93E0911B02EB
:10082000F0911C028081E0912102F091220282FD70
:100830001BC09081809124028F5F8F7320912502CD
:10084000821741F0E0912402F0E0E55FFD4F958FC3
:1008500080932402FF91EF919F918F912F910F90A0
:100860000FBE0F901F9018958081F4CFCF92DF922A
:10087000EF92FF920F931F93E82FF92F05C00150BD
:1008800011092109310961F1908196239417B9F377
:1008900005C0015011092109310911F190819623F8
:1008A0009413F7CFC12CD12CE12CF12C0AC08FEF7F
:1008B000C81AD80AE80AF80A0C151D052E053F05C6
:1008C00079F080818623841791F36C2D7D2D8E2DF8
:1008D0009F2D1F910F91FF90EF90DF90CF90089583
:1008E00060E070E080E090E01F910F91FF90EF904A
:1008F000DF90CF900895EBE0F2E01382128288EE51
:1009000093E0A0E0B0E084839583A683B7838AE078
:1009100091E09183808385EC90E09587848784ECD7
:1009200090E09787868780EC90E0918B808B81ECBC
:1009300090E0938B828B82EC90E0958B848B86EC9D
:1009400090E0978B868B118E128E138E148EE8EAB0
:10095000F2E084E0808385E0818386E0828387E023
:10096000838388E084830895CF93DF93CDB7DEB788
:1009700028970FB6F894DEBF0FBECDBF789484B52C
:10098000826084BD84B5816084BD85B5826085BD8B
:1009900085B5816085BD80916E00816080936E0019
:1009A000109281008091810082608093810080910B
:1009B00081008160809381008091800081608093BC
:1009C00080008091B10084608093B1008091B0007C
:1009D00081608093B00080917A00846080937A0077
:1009E00080917A00826080937A0080917A008160A1
:1009F00080937A0080917A00806880937A001092C8
:100A0000C100E0911B02F0911C0282E08083E09122
:100A10001702F09118021082E0911902F0911A0267
:100A20008FEC808310922302E0911F02F09120024C
:100A300086E08083E0911D02F0911E02808180613A
:100A40008083E0911D02F0911E0280818860808386
:100A5000E0911D02F0911E02808180688083E09108
:100A60001D02F0911E0280818F7D808361E0809164
:100A7000A8020E94D80061E08091A9020E94D800DB
:100A800061E08091AA020E94D80061E08091AB02EF
:100A90000E94D80060E08091AC020E94D80061E022
:100AA0008091A8020E948C0060E08091A9020E94BF
:100AB0008C008BE191E00E94B20284E391E00E94FD
:100AC000B20260ED77E080E090E00E942E018FE0BE
:100AD00097E29093AE028093AD021092B002109212
:100AE000AF029093B2028093B1021092B4021092BE
:100AF000B3029093B6028093B5021092B80210929E
:100B0000B70202E310E070E060E090E080E00E9455
:100B10006D022091AD023091AE02821793070CF462
:100B20009C013093AE022093AD022091AF02309130
:100B3000B002281739070CF49C013093B0022093BF
:100B4000AF0261E070E081E090E00E946D022091D0
:100B5000B1023091B202821793070CF49C013093DA
:100B6000B2022093B1022091B3023091B40228174F
:100B700039070CF49C013093B4022093B30261E076
:100B800070E090E080E00E946D022091B50230910B
:100B9000B602821793070CF49C013093B60220939F
:100BA000B5022091B7023091B802281739070CF42A
:100BB0009C013093B8022093B70264E670E080E0B5
:100BC00090E00E942E010150110909F09CCF88E5A8
:100BD00091E00E94B2028CE691E00E94B002809106
:100BE000AD029091AE020E94C00286E791E00E94A1
:100BF000B0028091AF029091B0020E943D038DE758
:100C000091E00E94B0028091B1029091B2020E94E4
:100C1000C00286E791E00E94B0028091B3029091F9
:100C2000B4020E943D0389E891E00E94B0028091E5
:100C3000B5029091B6020E94C00286E791E00E9440
:100C4000B0028091B7029091B8020E943D0384E9FE
:100C500091E00E94B20270E060E090E080E00E94CB
:100C60006D028C0161E070E081E090E00E946D0215
:100C70007C0161E070E090E080E00E946D02988766
:100C80008F838AEA91E00E94B002C8010E94C002EC
:100C900084EB91E00E94B002C7010E94C00289EB80
:100CA00091E00E94B0028F8198850E943D03809060
:100CB000AF029090B002092C000CAA08BB08012ECC
:100CC000000C220B330BA9019801281939094A0994
:100CD0005B09A4E6B0E00E9481072091AD0230914B
:100CE000AE02032E000C440B550B281939094A0992
:100CF0005B090E946207290189018090B3029090EC
:100D0000B402092C000CAA08BB089701FF0C440B85
:100D1000550B281939094A095B09A4E6B0E00E947D
:100D200081072091B1023091B202032E000C440BD6
:100D3000550B281939094A095B090E9462076901A4
:100D400019018090B7029090B802092C000CAA08F3
:100D5000BB088F8198859C01990F440B550B28196E
:100D600039094A095B09A4E6B0E00E948107209195
:100D7000B5023091B602032E000C440B550B281916
:100D800039094A095B090E946207490138872F83A4
:100D90008EEB91E00E94B002C2010E94C00284EB7F
:100DA00091E00E94B002C6010E94C00289EB91E06E
:100DB0000E94B002C4010E943D0304311105ACF54C
:100DC00094E1C916D1043CF48F8198856DEC71E0F3
:100DD00044970CF446C09DE3291631046CF0C2011F
:100DE0000F968215930544F48FE0880E911C6DEDEB
:100DF00071E082149304ACF18F819885CD9794F0C3
:100E00009FE0490E511C8F8198854816590654F46D
:100E10009FE0C90ED11C8F81988563EE71E0C816E2
:100E2000D906FCF068EE71E01CC0013511050CF428
:100E300045C091E5C916D1043CF08F81988563EDDA
:100E400071E0813591056CF4C6010F96801791070A
:100E500014F6C4010F9669ED71E0801791070CF04C
:100E6000BACFCE0101960E944B0380EF91E00E9421
:100E7000B0024D815E8169817A818BE092E00E94AF
:100E8000600188E191E00E94A30264EF71E080E0DC
:100E900090E00E942E0189819A81009711F00E94B2
:100EA000960880E090E0892B09F4D5CE0E94CA0113
:100EB000882309F4D0CE0E940000CDCE0D33110559
:100EC0001CF689CF052E97FB1EF400940E9479072B
:100ED00057FD07D00E94C30707FC03D04EF40C94C3
:100EE000790750954095309521953F4F4F4F5F4F73
:100EF000089590958095709561957F4F8F4F9F4F86
:100F000008950E94E507A59F900DB49F900DA49FA2
:100F1000800D911D112408952F923F924F925F9260
:100F20006F927F928F929F92AF92BF92CF92DF92F9
:100F3000EF92FF920F931F93CF93DF93CDB7DEB75E
:100F4000CA1BDB0B0FB6F894DEBF0FBECDBF0994F2
:100F50002A88398848885F846E847D848C849B8449
:100F6000AA84B984C884DF80EE80FD800C811B8157
:100F7000AA81B981CE0FD11D0FB6F894DEBF0FBE86
:100F8000CDBFED010895A1E21A2EAA1BBB1BFD01E6
:100F90000DC0AA1FBB1FEE1FFF1FA217B307E40758
:100FA000F50720F0A21BB30BE40BF50B661F771FB0
:100FB000881F991F1A9469F7609570958095909590
:100FC0009B01AC01BD01CF010895A29FB001B39F69
:100FD000C001A39F700D811D1124911DB29F700D42
:100FE000811D1124911D0895EE0FFF1F0590F491AE
:100FF000E02D09940F931F93CF93DF9382309105D7
:1010000010F482E090E0E091BB02F091BC0230E08D
:1010100020E0B0E0A0E0309799F42115310509F403
:101020004AC0281B390B24303105D8F58A819B81B1
:101030006115710589F1FB0193838283FE0111C063
:10104000408151810281138148175907E0F0481708
:10105000590799F4109761F012960C931297139612
:101060001C933296CF01DF91CF911F910F9108957C
:101070000093BB021093BC02F4CF2115310551F04F
:101080004217530738F0A901DB019A01BD01DF01C6
:10109000F801C1CFEF01F9CF9093BC028093BB025E
:1010A000CDCFFE01E20FF31F8193919322503109BE
:1010B00039832883D7CF2091B9023091BA02232BEC
:1010C00041F420910201309103013093BA02209340
:1010D000B90220910001309101012115310541F43F
:1010E0002DB73EB74091040150910501241B350BEB
:1010F000E091B902F091BA02E217F307A0F42E1BB7
:101100003F0B2817390778F0AC014E5F5F4F24176B
:10111000350748F04E0F5F1F5093BA024093B90253
:10112000819391939FCFF0E0E0E09CCFCF93DF934A
:101130000097E9F0FC01329713821282A091BB0262
:10114000B091BC02ED0130E020E01097A1F42081C5
:101150003181820F931F2091B9023091BA02281772
:10116000390709F061C0F093BA02E093B902DF9148
:10117000CF910895EA01CE17DF07E8F54A815B8138
:101180009E0141155105B1F7E901FB83EA834991BD
:101190005991C40FD51FEC17FD0761F4808191812F
:1011A0000296840F951FE901998388838281938138
:1011B0009B838A83F0E0E0E012968D919C911397D7
:1011C0000097B9F52D913C911197CD010296820FB0
:1011D000931F2091B9023091BA022817390739F6C6
:1011E000309751F51092BC021092BB02B093BA0234
:1011F000A093B902BCCFD383C28340815181840FB5
:10120000951FC817D90761F44E5F5F4F8881998198
:10121000480F591F518340838A819B819383828326
:101220002115310509F0B0CFF093BC02E093BB0269
:101230009ECFFD01DC01C0CF13821282D7CFB0E078
:10124000A0E0E5E2F9E00C948E078C01009751F4E0
:10125000CB010E94FA078C01C801CDB7DEB7E0E1EF
:101260000C94AA07FC01E60FF71F9C0122503109DC
:10127000E217F30708F49DC0D901CD91DC911197D5
:10128000C617D70798F0C530D10530F3CE010497C3
:101290008617970708F3C61BD70B2297C193D193E4
:1012A0006D937C93CF010E949608D6CF5B01AC1A58
:1012B000BD0A4C018C0E9D1EA091BB02B091BC02D8
:1012C000512C412CF12CE12C109731F58091B90271
:1012D0009091BA028815990509F05CC04616570628
:1012E00008F058C08091000190910101009741F4ED
:1012F0008DB79EB74091040150910501841B950B59
:10130000E817F90708F055C0F093BA02E093B90264
:10131000F90171836083A0CF8D919C9111971296F2
:101320006C90129713967C901397A815B90559F5F0
:101330006C0142E0C40ED11CCA14DB0420F1AC01E4
:101340004A195B09DA011296159780F0628273825E
:1013500051834083D9016D937C93E114F10471F0C2
:10136000D7011396FC93EE93129776CF22968C0FAB
:101370009D1FF90191838083F301EFCFF093BC02AD
:10138000E093BB0269CF4816590608F42C017D0191
:10139000D3019ACFCB010E94FA077C01009749F054
:1013A000AE01B8010E94DC09C8010E9496088701BD
:1013B00053CF10E000E050CFFB01DC0102C00190F0
:1013C0000D9241505040D8F70895FB01DC01019087
:0C13D0000D920020E1F70895F894FFCF83
:1013DC000000BD02800000000000000260018D01D1
:1013EC004D02BE019C01B0010D0A00436F6C6F727F
:1013FC002053656E736F72205374617274696E67DB
:10140C002E2E2E00486F6C642077686974652070EE
:10141C006170657220666F722063616C69627261C3
:10142C0074696F6E2E2E2E0043616C69627261744A
:10143C00696F6E2056616C7565733A005265642055
:10144C004D696E3A2000204D61783A200047726554
:10145C00656E204D696E3A2000426C7565204D69B1
:10146C006E3A200043616C6962726174696F6E2020
:10147C00436F6D706C6574652100526177202D206F
:10148C00523A200020473A200020423A2000537460
:10149C0072656E677468202D20523A2000424C41D0
:1014AC00434B005748495445005245440047524568
:1014BC00454E00424C554500554E4B4E4F574E0035
:1014CC00446574656374656420436F6C6F723A2075
:0214DC0000000E
:00000001FF
